{
  "contractName": "PaymentPipe",
  "abi": [
    {
      "constant": true,
      "inputs": [],
      "name": "owner",
      "outputs": [
        {
          "name": "",
          "type": "address"
        }
      ],
      "payable": false,
      "stateMutability": "view",
      "type": "function"
    },
    {
      "constant": true,
      "inputs": [],
      "name": "totalFunds",
      "outputs": [
        {
          "name": "",
          "type": "uint256"
        }
      ],
      "payable": false,
      "stateMutability": "view",
      "type": "function"
    },
    {
      "inputs": [],
      "payable": false,
      "stateMutability": "nonpayable",
      "type": "constructor"
    },
    {
      "constant": false,
      "inputs": [
        {
          "name": "externalAccount",
          "type": "address"
        }
      ],
      "name": "payAccountWithOnePercentTax",
      "outputs": [],
      "payable": true,
      "stateMutability": "payable",
      "type": "function"
    },
    {
      "constant": false,
      "inputs": [
        {
          "name": "externalAccount",
          "type": "address"
        },
        {
          "name": "amount",
          "type": "uint256"
        }
      ],
      "name": "callExternalContractWithOnePercentTax",
      "outputs": [],
      "payable": false,
      "stateMutability": "nonpayable",
      "type": "function"
    },
    {
      "constant": true,
      "inputs": [],
      "name": "getTotalFunds",
      "outputs": [
        {
          "name": "totalFunds",
          "type": "uint256"
        }
      ],
      "payable": false,
      "stateMutability": "view",
      "type": "function"
    }
  ],
  "bytecode": "0x608060405234801561001057600080fd5b5033600160006101000a81548173ffffffffffffffffffffffffffffffffffffffff021916908373ffffffffffffffffffffffffffffffffffffffff1602179055506102e7806100616000396000f30060806040526004361061006d576000357c0100000000000000000000000000000000000000000000000000000000900463ffffffff1680634d0bad98146100725780638da5cb5b146100bf578063968ed60014610116578063c3218dfe14610141578063eb8bbd2814610177575b600080fd5b34801561007e57600080fd5b506100bd600480360381019080803573ffffffffffffffffffffffffffffffffffffffff169060200190929190803590602001909291905050506101a2565b005b3480156100cb57600080fd5b506100d4610215565b604051808273ffffffffffffffffffffffffffffffffffffffff1673ffffffffffffffffffffffffffffffffffffffff16815260200191505060405180910390f35b34801561012257600080fd5b5061012b61023b565b6040518082815260200191505060405180910390f35b610175600480360381019080803573ffffffffffffffffffffffffffffffffffffffff169060200190929190505050610241565b005b34801561018357600080fd5b5061018c6102b3565b6040518082815260200191505060405180910390f35b6000806064838115156101b157fe5b04915081600080828254019250508190555081830390508373ffffffffffffffffffffffffffffffffffffffff166108fc829081150290604051600060405180830381858888f1935050505015801561020e573d6000803e3d6000fd5b5050505050565b600160009054906101000a900473ffffffffffffffffffffffffffffffffffffffff1681565b60005481565b60008060643481151561025057fe5b04915081600080828254019250508190555081340390508273ffffffffffffffffffffffffffffffffffffffff166108fc829081150290604051600060405180830381858888f193505050501580156102ad573d6000803e3d6000fd5b50505050565b6000809050905600a165627a7a7230582013fd29da70ca959384ebf1bcf588dfbbce819826fcefa6b158d3037ecf1df0670029",
  "source": "pragma solidity ^0.4.23;\n\ncontract PaymentPipe {\n\n  uint public totalFunds;\n\n  address public owner;\n\n  constructor() {\n    owner = msg.sender;\n  }\n\n  function payAccountWithOnePercentTax(address externalAccount) payable {\n    uint onePercent = msg.value/100;\n    totalFunds += onePercent;\n    uint totalToSend = msg.value - onePercent;\n    externalAccount.transfer(totalToSend);\n  }\n\n  function callExternalContractWithOnePercentTax(address externalAccount, uint amount) {\n    uint onePercent = amount/100;\n    totalFunds += onePercent;\n    uint totalToSend = amount - onePercent;\n    externalAccount.transfer(totalToSend);\n  }\n\n  function getTotalFunds() view returns (uint totalFunds) {\n    return totalFunds;\n  }\n}\n",
  "sourcePath": "/Users/berniesnell/Documents/blockchain/Project/contracts/PaymentPipe.sol",
  "compiler": {
    "name": "solc",
    "version": "0.4.24+commit.e67f0147.Emscripten.clang"
  },
  "schemaVersion": "2.0.1",
  "updatedAt": "2018-07-17T17:08:10.368Z"
}