{
  "contractName": "PaymentPipe",
  "abi": [
    {
      "constant": true,
      "inputs": [],
      "name": "owner",
      "outputs": [
        {
          "name": "",
          "type": "address"
        }
      ],
      "payable": false,
      "stateMutability": "view",
      "type": "function"
    },
    {
      "constant": true,
      "inputs": [],
      "name": "totalFunds",
      "outputs": [
        {
          "name": "",
          "type": "uint256"
        }
      ],
      "payable": false,
      "stateMutability": "view",
      "type": "function"
    },
    {
      "inputs": [],
      "payable": false,
      "stateMutability": "nonpayable",
      "type": "constructor"
    },
    {
      "anonymous": false,
      "inputs": [
        {
          "indexed": false,
          "name": "_message",
          "type": "string"
        }
      ],
      "name": "ExternalContractCall",
      "type": "event"
    },
    {
      "constant": false,
      "inputs": [
        {
          "name": "externalAccount",
          "type": "address"
        }
      ],
      "name": "payAccountWithOnePercentTax",
      "outputs": [],
      "payable": true,
      "stateMutability": "payable",
      "type": "function"
    },
    {
      "constant": false,
      "inputs": [
        {
          "name": "externalAccount",
          "type": "address"
        },
        {
          "name": "methodNameSignature",
          "type": "string"
        }
      ],
      "name": "callExternalContractWithOnePercentTax",
      "outputs": [],
      "payable": true,
      "stateMutability": "payable",
      "type": "function"
    },
    {
      "constant": true,
      "inputs": [],
      "name": "getTotalFunds",
      "outputs": [
        {
          "name": "totalFunds",
          "type": "uint256"
        }
      ],
      "payable": false,
      "stateMutability": "view",
      "type": "function"
    }
  ],
  "bytecode": "0x608060405234801561001057600080fd5b5033600260006101000a81548173ffffffffffffffffffffffffffffffffffffffff021916908373ffffffffffffffffffffffffffffffffffffffff160217905550610432806100616000396000f30060806040526004361061006d576000357c0100000000000000000000000000000000000000000000000000000000900463ffffffff168063352eaa3f146100725780638da5cb5b146100ee578063968ed60014610145578063c3218dfe14610170578063eb8bbd28146101a6575b600080fd5b6100ec600480360381019080803573ffffffffffffffffffffffffffffffffffffffff169060200190929190803590602001908201803590602001908080601f01602080910402602001604051908101604052809392919081815260200183838082843782019150505050505091929192905050506101d1565b005b3480156100fa57600080fd5b5061010361035f565b604051808273ffffffffffffffffffffffffffffffffffffffff1673ffffffffffffffffffffffffffffffffffffffff16815260200191505060405180910390f35b34801561015157600080fd5b5061015a610385565b6040518082815260200191505060405180910390f35b6101a4600480360381019080803573ffffffffffffffffffffffffffffffffffffffff16906020019092919050505061038b565b005b3480156101b257600080fd5b506101bb6103fe565b6040518082815260200191505060405180910390f35b60008060006064348115156101e257fe5b049250826001600082825401925050819055508234039150846000806101000a81548173ffffffffffffffffffffffffffffffffffffffff021916908373ffffffffffffffffffffffffffffffffffffffff160217905550836040518082805190602001908083835b602083101515610270578051825260208201915060208101905060208303925061024b565b6001836020036101000a0380198251168184511680821785525050505050509050019150506040518091039020905060405181815260208160248386600054613a98f160008114156102c157600080fd5b6024820160405250507fbb0f8e53d1502e642752f360b6083feee88ca0855e07a02dbffa8e039d2cd01b6040518080602001828103825260288152602001807f45787465726e616c20436f6e74726163742063616c6c206d616465207769746881526020017f20616d6f756e742100000000000000000000000000000000000000000000000081525060400191505060405180910390a15050505050565b600260009054906101000a900473ffffffffffffffffffffffffffffffffffffffff1681565b60015481565b60008060643481151561039a57fe5b0491508160016000828254019250508190555081340390508273ffffffffffffffffffffffffffffffffffffffff166108fc829081150290604051600060405180830381858888f193505050501580156103f8573d6000803e3d6000fd5b50505050565b6000809050905600a165627a7a72305820c85bc747198afe31d121760a0c36a9c46f03cc3051bedd58caebb22ac0b73daf0029",
  "source": "pragma solidity ^0.4.23;\n\ncontract PaymentPipe {\n\n  address externalContractAddress;\n\n  event ExternalContractCall(\n    string _message\n  );\n\n  uint public totalFunds;\n\n  address public owner;\n\n  constructor() {\n    owner = msg.sender;\n  }\n\n  function payAccountWithOnePercentTax(address externalAccount) payable {\n    uint onePercent = msg.value/100;\n    totalFunds += onePercent;\n    uint totalToSend = msg.value - onePercent;\n    externalAccount.transfer(totalToSend);\n  }\n\n  // this should likely be the contract address, and then a hash of the method to call...\n  function callExternalContractWithOnePercentTax(address externalAccount, string methodNameSignature) payable {\n    uint onePercent = msg.value/100;\n    totalFunds += onePercent;\n    uint totalToSend = msg.value - onePercent;\n    externalContractAddress = externalAccount;\n    /* externalAccount.call(bytes4(keccak256(methodNameSignature))); */\n\n    /*  Couldn't find a way to do this and alter the amount of ether to send*/\n    bytes4 sig = bytes4(keccak256(methodNameSignature));\n        assembly {\n            // move pointer to free memory spot\n            let ptr := mload(0x40)\n            // put function sig at memory spot\n            mstore(ptr,sig)\n\n            let result := call(\n              15000, // gas limit\n              sload(externalContractAddress_slot),  // to addr. append var to _slot to access storage variable\n              totalToSend, // amount of ether to transfer\n              ptr, // Inputs are stored at location ptr\n              0x24, // Inputs are 36 bytes long\n              ptr,  //Store output over input\n              0x20) //Outputs are 32 bytes long\n\n            if eq(result, 0) {\n                revert(0, 0)\n            }\n\n            mstore(0x40,add(ptr,0x24)) // Set storage pointer to new space\n        }\n    emit ExternalContractCall('External Contract call made with amount!');\n  }\n\n  function getTotalFunds() view returns (uint totalFunds) {\n    return totalFunds;\n  }\n}\n",
  "sourcePath": "/Users/berniesnell/Documents/blockchain/Project/contracts/PaymentPipe.sol",
  "compiler": {
    "name": "solc",
    "version": "0.4.24+commit.e67f0147.Emscripten.clang"
  },
  "schemaVersion": "2.0.1",
  "updatedAt": "2018-07-22T09:29:08.784Z"
}