{
  "contractName": "ExternalContractExample",
  "abi": [
    {
      "constant": true,
      "inputs": [],
      "name": "totalPaidIn",
      "outputs": [
        {
          "name": "",
          "type": "uint256"
        }
      ],
      "payable": false,
      "stateMutability": "view",
      "type": "function"
    },
    {
      "inputs": [],
      "payable": false,
      "stateMutability": "nonpayable",
      "type": "constructor"
    },
    {
      "anonymous": false,
      "inputs": [
        {
          "indexed": false,
          "name": "_message",
          "type": "string"
        }
      ],
      "name": "ExternalContractPaid",
      "type": "event"
    },
    {
      "constant": false,
      "inputs": [],
      "name": "paymentExample",
      "outputs": [],
      "payable": true,
      "stateMutability": "payable",
      "type": "function"
    }
  ],
  "bytecode": "0x608060405234801561001057600080fd5b50600a600081905550610129806100286000396000f3006080604052600436106049576000357c0100000000000000000000000000000000000000000000000000000000900463ffffffff1680632a3868c414604e5780633f674485146076575b600080fd5b348015605957600080fd5b506060607e565b6040518082815260200191505060405180910390f35b607c6084565b005b60005481565b3460008082825401925050819055507faf406a2ac1c6e09ad95e876ef4bd104f84ca32fa1ca8eaa61d03382b7276b85360405180806020018281038252601b8152602001807f45787465726e616c20436f6e747261637420776173207061696421000000000081525060200191505060405180910390a15600a165627a7a723058204a783cc4ba45656e1a9871c9adb3d5bfe7b5bc8d0e3ab53dafa5b97acb56ff800029",
  "source": "pragma solidity ^0.4.23;\n\ncontract ExternalContractExample {\n\n  uint public totalPaidIn;\n\n  event ExternalContractPaid(\n    string _message\n  );\n\n  constructor () {\n    totalPaidIn = 10;\n  }\n\n  function paymentExample() public payable {\n    totalPaidIn += msg.value;\n    emit ExternalContractPaid('External Contract was paid!');\n  }\n}\n",
  "sourcePath": "/Users/berniesnell/Documents/blockchain/Project/contracts/ExternalContractExample.sol",
  "compiler": {
    "name": "solc",
    "version": "0.4.24+commit.e67f0147.Emscripten.clang"
  },
  "schemaVersion": "2.0.1",
  "updatedAt": "2018-07-21T08:58:50.424Z"
}