{
  "contractName": "ExternalContractExample",
  "abi": [
    {
      "constant": true,
      "inputs": [],
      "name": "totalPaidIn",
      "outputs": [
        {
          "name": "",
          "type": "uint256"
        }
      ],
      "payable": false,
      "stateMutability": "view",
      "type": "function"
    },
    {
      "inputs": [],
      "payable": false,
      "stateMutability": "nonpayable",
      "type": "constructor"
    },
    {
      "anonymous": false,
      "inputs": [
        {
          "indexed": false,
          "name": "_message",
          "type": "string"
        },
        {
          "indexed": false,
          "name": "amount",
          "type": "uint256"
        }
      ],
      "name": "ExternalContractPaid",
      "type": "event"
    },
    {
      "constant": false,
      "inputs": [],
      "name": "paymentExample",
      "outputs": [],
      "payable": true,
      "stateMutability": "payable",
      "type": "function"
    }
  ],
  "bytecode": "0x608060405234801561001057600080fd5b50600a600081905550610138806100286000396000f30060806040526004361061004c576000357c0100000000000000000000000000000000000000000000000000000000900463ffffffff1680632a3868c4146100515780633f6744851461007c575b600080fd5b34801561005d57600080fd5b50610066610086565b6040518082815260200191505060405180910390f35b61008461008c565b005b60005481565b3460008082825401925050819055507e8329b09d0b8673d0a077fa01dfeb3397448147721aca5e5ea55a61205e2d6e3460405180806020018381526020018281038252601b8152602001807f45787465726e616c20436f6e74726163742077617320706169642100000000008152506020019250505060405180910390a15600a165627a7a723058209c46b527b0868d9ce5ab348aa99cc32ca7da52d96e35a95f6752b09e43228b920029",
  "source": "pragma solidity ^0.4.23;\n\ncontract ExternalContractExample {\n\n  uint public totalPaidIn;\n\n  event ExternalContractPaid(\n    string _message,\n    uint amount\n  );\n\n  constructor () {\n    totalPaidIn = 10;\n  }\n\n  function paymentExample() public payable {\n    totalPaidIn += msg.value;\n    emit ExternalContractPaid('External Contract was paid!', msg.value);\n  }\n}\n",
  "sourcePath": "/Users/berniesnell/Documents/blockchain/Project/contracts/ExternalContractExample.sol",
  "compiler": {
    "name": "solc",
    "version": "0.4.24+commit.e67f0147.Emscripten.clang"
  },
  "schemaVersion": "2.0.1",
  "updatedAt": "2018-07-22T09:29:08.785Z"
}