{
  "contractName": "PayableExample",
  "abi": [
    {
      "constant": true,
      "inputs": [],
      "name": "totalPaidIn",
      "outputs": [
        {
          "name": "",
          "type": "uint256"
        }
      ],
      "payable": false,
      "stateMutability": "view",
      "type": "function"
    },
    {
      "inputs": [],
      "payable": false,
      "stateMutability": "nonpayable",
      "type": "constructor"
    },
    {
      "constant": false,
      "inputs": [
        {
          "name": "amount",
          "type": "uint256"
        }
      ],
      "name": "paymentExample",
      "outputs": [],
      "payable": true,
      "stateMutability": "payable",
      "type": "function"
    }
  ],
  "bytecode": "0x608060405234801561001057600080fd5b506000808190555060d8806100266000396000f3006080604052600436106049576000357c0100000000000000000000000000000000000000000000000000000000900463ffffffff1680632a3868c414604e578063fb6c668c146076575b600080fd5b348015605957600080fd5b5060606094565b6040518082815260200191505060405180910390f35b609260048036038101908080359060200190929190505050609a565b005b60005481565b346000808282540192505081905550505600a165627a7a7230582006c47301925e6c613b37e41b471600d2b99eac2ad36ee64b3c600c9e977ad4050029",
  "source": "pragma solidity ^0.4.23;\n\ncontract PayableExample {\n\n  uint public totalPaidIn;\n\n  constructor () {\n    totalPaidIn = 0;\n  }\n\n  function paymentExample(uint amount) public payable {\n    totalPaidIn += msg.value;\n  }\n}\n",
  "sourcePath": "/Users/berniesnell/Documents/blockchain/Project/contracts/ExternalContractExample.sol",
  "compiler": {
    "name": "solc",
    "version": "0.4.24+commit.e67f0147.Emscripten.clang"
  },
  "schemaVersion": "2.0.1",
  "updatedAt": "2018-07-17T17:08:10.365Z"
}