{
  "contractName": "PaymentPipe",
  "abi": [
    {
      "constant": true,
      "inputs": [],
      "name": "owner",
      "outputs": [
        {
          "name": "",
          "type": "address"
        }
      ],
      "payable": false,
      "stateMutability": "view",
      "type": "function"
    },
    {
      "constant": true,
      "inputs": [],
      "name": "totalFunds",
      "outputs": [
        {
          "name": "",
          "type": "uint256"
        }
      ],
      "payable": false,
      "stateMutability": "view",
      "type": "function"
    },
    {
      "inputs": [],
      "payable": false,
      "stateMutability": "nonpayable",
      "type": "constructor"
    },
    {
      "constant": false,
      "inputs": [
        {
          "name": "externalAccount",
          "type": "address"
        }
      ],
      "name": "payAccountWithOnePercentTax",
      "outputs": [],
      "payable": true,
      "stateMutability": "payable",
      "type": "function"
    },
    {
      "constant": false,
      "inputs": [
        {
          "name": "externalAccount",
          "type": "address"
        },
        {
          "name": "methodNameSignature",
          "type": "string"
        }
      ],
      "name": "callExternalContractWithOnePercentTax",
      "outputs": [],
      "payable": true,
      "stateMutability": "payable",
      "type": "function"
    },
    {
      "constant": true,
      "inputs": [],
      "name": "getTotalFunds",
      "outputs": [
        {
          "name": "totalFunds",
          "type": "uint256"
        }
      ],
      "payable": false,
      "stateMutability": "view",
      "type": "function"
    }
  ],
  "bytecode": "0x608060405234801561001057600080fd5b5033600160006101000a81548173ffffffffffffffffffffffffffffffffffffffff021916908373ffffffffffffffffffffffffffffffffffffffff1602179055506103a8806100616000396000f30060806040526004361061006d576000357c0100000000000000000000000000000000000000000000000000000000900463ffffffff168063352eaa3f146100725780638da5cb5b146100ee578063968ed60014610145578063c3218dfe14610170578063eb8bbd28146101a6575b600080fd5b6100ec600480360381019080803573ffffffffffffffffffffffffffffffffffffffff169060200190929190803590602001908201803590602001908080601f01602080910402602001604051908101604052809392919081815260200183838082843782019150505050505091929192905050506101d1565b005b3480156100fa57600080fd5b506101036102d6565b604051808273ffffffffffffffffffffffffffffffffffffffff1673ffffffffffffffffffffffffffffffffffffffff16815260200191505060405180910390f35b34801561015157600080fd5b5061015a6102fc565b6040518082815260200191505060405180910390f35b6101a4600480360381019080803573ffffffffffffffffffffffffffffffffffffffff169060200190929190505050610302565b005b3480156101b257600080fd5b506101bb610374565b6040518082815260200191505060405180910390f35b6000806064348115156101e057fe5b04915081600080828254019250508190555081340390508373ffffffffffffffffffffffffffffffffffffffff16836040518082805190602001908083835b602083101515610244578051825260208201915060208101905060208303925061021f565b6001836020036101000a03801982511681845116808217855250505050505090500191505060405180910390207c010000000000000000000000000000000000000000000000000000000090046040518163ffffffff167c0100000000000000000000000000000000000000000000000000000000028152600401600060405180830381865af4925050505050505050565b600160009054906101000a900473ffffffffffffffffffffffffffffffffffffffff1681565b60005481565b60008060643481151561031157fe5b04915081600080828254019250508190555081340390508273ffffffffffffffffffffffffffffffffffffffff166108fc829081150290604051600060405180830381858888f1935050505015801561036e573d6000803e3d6000fd5b50505050565b6000809050905600a165627a7a723058205085507fc343223b139c1c466500a7006ffade8d34d8c569fdb300f9cfb820d80029",
  "source": "pragma solidity ^0.4.23;\n\ncontract PaymentPipe {\n\n  uint public totalFunds;\n\n  address public owner;\n\n  constructor() {\n    owner = msg.sender;\n  }\n\n  function payAccountWithOnePercentTax(address externalAccount) payable {\n    uint onePercent = msg.value/100;\n    totalFunds += onePercent;\n    uint totalToSend = msg.value - onePercent;\n    externalAccount.transfer(totalToSend);\n  }\n\n  // this should likely be the contract address, and then a hash of the method to call...\n  function callExternalContractWithOnePercentTax(address externalAccount, string methodNameSignature) payable{\n    uint onePercent = msg.value/100;\n    totalFunds += onePercent;\n    uint totalToSend = msg.value - onePercent;\n    externalAccount.delegatecall(bytes4(keccak256(methodNameSignature)));\n  }\n\n  function getTotalFunds() view returns (uint totalFunds) {\n    return totalFunds;\n  }\n}\n",
  "sourcePath": "/Users/berniesnell/Documents/blockchain/Project/contracts/PaymentPipe.sol",
  "compiler": {
    "name": "solc",
    "version": "0.4.24+commit.e67f0147.Emscripten.clang"
  },
  "schemaVersion": "2.0.1",
  "updatedAt": "2018-07-21T08:58:50.426Z"
}